:0300000002013EBC
:0C013E00787FE4F6D8FD7581260201856B
:0F0396000A09C0F9A4B0999282F880900108007A
:0403A6007F287E002E
:0B03AA00EF1FAC0670011E4C70F62225
:1002EB00C200D2947F607E001203AAC2947F807EEC
:1002FB00021203AAD2947F507E001203AAA29492F8
:06030B00001203A6A2008F
:0103110022C9
:02031200AD0735
:10031400E4FBC294ED1392941203A6D294EDC3139A
:0C032400FD0BBB08ED7F287E000203AA41
:10034D00E4FBC294EDC313FDD294309403430580B6
:09035D001203A60BBB08EBAF056F
:010366002274
:1001CA001202EB7FCC1203127F44120312D2943034
:1001DA0094FD1202EB7FCC1203127FBE120312129D
:1001EA00034D7525008F2612034DEF4525FEE526A2
:1001FA00FFE48F248E23F522F5217F107E27FDFC54
:10020A00AB24AA23A922A82112000E780412012BDA
:01021A0022C1
:1002AF002000082001055380AF8025300008300161
:1002BF0005438050801A30000B20010843804053C3
:1002CF0080EF800C2001143001115380BF43801048
:0C02DF00E5A0541F44A0F5A053A01F226E
:10021B007580FFE5A0541F44E0F5A053A01FAF0865
:10022B007401A807088002C333D8FCF580E5A054FD
:10023B001F44C0F5A053A01F74132508F8E624092A
:10024B00F8E6F580E5A0541F44E0F5A053A01F0588
:09025B0008E508B40803E4F50805
:010264002277
:080265008F248E238D228C21D1
:10026D00752507E47B0AFAF9F8AF24AE23AD22AC6D
:10027D0021120099AF0374132525F8A607AF24AEFC
:10028D0023AD22AC21E47B0AFAF9F81200998F24F0
:10029D008E238D228C211525C3E5256480948050F5
:0102AD00C28E
:0102AE00222D
:10038100D2AFD2A9E58954F04401F589758CF8E41E
:05039100F58AD28C2268
:03000B00020330BD
:10033000C0E0C0D075D000C000C007758CF8758AC9
:0D0340000012021BD007D000D0D0D0E03258
:10036700120381C200C2011202AF1201CA8F1E8E90
:0A0377001D8D1C8C1B12026580F026
:10014A00020367E493A3F8E493A34003F68001F261
:10015A0008DFF48029E493A3F85407240CC8C333B6
:10016A00C4540F4420C8834004F456800146F6DF85
:10017A00E4800B0102040810204080900396E47E7C
:10018A00019360BCA3FF543F30E509541FFEE4937A
:10019A00A360010ECF54C025E060A840B8E493A341
:1001AA00FAE493A3F8E493A3C8C582C8CAC583CA6C
:1001BA00F0A3C8C582C8CAC583CADFE9DEE780BE24
:0103A5000057
:10000E00E88FF0A4CC8BF0A42CFCE98EF0A42CFC91
:10001E008AF0EDA42CFCEA8EF0A4CDA8F08BF0A40F
:10002E002DCC3825F0FDE98FF0A42CCD35F0FCEB6E
:10003E008EF0A4FEA9F0EB8FF0A4CFC5F02ECD3933
:0F004E00FEE43CFCEAA42DCE35F0FDE43CFC22A0
:10005D0075F008758200EF2FFFEE33FECD33CDCC5A
:10006D0033CCC58233C5829BED9AEC99E5829840DD
:10007D000CF582EE9BFEED9AFDEC99FC0FD5F0D6BA
:10008D00E4CEFBE4CDFAE4CCF9A88222B800C1B9E4
:10009D000059BA002DEC8BF084CFCECDFCE5F0CB22
:1000AD00F97818EF2FFFEE33FEED33FDEC33FCEB5B
:1000BD0033FB10D703994004EB99FB0FD8E5E4F916
:1000CD00FA227818EF2FFFEE33FEED33FDEC33FC03
:1000DD00C933C910D7059BE99A4007EC9BFCE99AF7
:1000ED00F90FD8E0E4C9FAE4CCFB2275F010EF2F3C
:1000FD00FFEE33FEED33FDCC33CCC833C810D7073C
:10010D009BEC9AE899400AED9BFDEC9AFCE899F876
:0E011D000FD5F0DAE4CDFBE4CCFAE4C8F92209
:10012B00E8600FECC313FCED13FDEE13FEEF13FFB2
:03013B00D8F122D6
:00000001FF
