:03000000020138C2
:0C013800787FE4F6D8FD75812602017F77
:0304150001231EA2
:1003AC000B0BC0F9A4B0999282F88090BF010800A1
:0603BC00C100020900006F
:0F03FD005380AFE5A0541F44A0F5A053A01F22CA
:10026300E52475F00A84F516E52475F00A8485F013
:1002730017E52575F00A84F519E52575F00A8485D7
:10028300F01AE52675F00A84F51CE52675F00A8454
:0A02930085F01D75180A751B0A227C
:100219007580FFE5A0541F44E0F5A053A01FAF0867
:100229007401A807088002C333D8FCF580E5A054FF
:100239001F44C0F5A053A01F74162508F8E6240B27
:10024900F8E6F580E5A0541F44E0F5A053A01F058A
:0902590008E508B40803E4F50807
:010262002279
:1003C300D2AFD2A9E58954F04401F589758CF8E4DC
:0503D300F58AD28C2226
:03000B000202CF1F
:0B02CF00C0E0C0D075D000C000C00728
:1002DA00120219758CF8758A30050AE50A7002054A
:0D02EA0009643245097006F509F50AD200D5
:0902F700D007D000D0D0D0E032D5
:1001C40078217C007D007BFF7A0479157E007F0313
:1001D4001200DE1203FD1203C378247C007D007B31
:1001E400007A0079217E007F031200DE12029D3026
:1001F40000FD7B007A00792112030078247C007DC5
:10020400007B007A0079217E007F031200DE120257
:0502140063C20080DA66
:0600030000007F0CDFFE8F
:0100090022D4
:02032D00AE0719
:10032F00E4FDC297120003EE30E004D2A38002C2B4
:10033F00A3120003D297120003C297EEC313FE0D50
:03034F00BD08DF07
:010352002288
:10035300E4FEFDEEC313FE30A30543068080035382
:10036300067FD297120003C2971200030DBD08E364
:02037300AF06D3
:010375002265
:10037600AE07AC05C293C297120003D2935306FE92
:0D038600AF0612032DAF0412032DC2932207
:02039300AE07B3
:10039500C293C297120003D293430601AF0612031C
:0603A5002D120353C29368
:0103AB00222F
:1003D800EF75F00A84C454F0FEEF75F00A84E5F076
:0303E8002EFF22C3
:0303EB0012039367
:0F03EE00EFC4540F75F00AA4FEEF540F2EFF2238
:10029D00E4FD7FEE120376E4FD7F90120376AF242A
:1002AD001203D8AD077F84120376AF251203D8ADA4
:1002BD00077F82120376AF261203D8AD077F800227
:0202CD000376B6
:08040C007F187E55DEFEDFFCC7
:0104140022C5
:100300007F841203EBEF12010412040C7F821203AC
:10031000EB900001EF12011612040C7F8012039380
:0D0320001203EE900002EF12011602040C11
:100144000201C4E493A3F8E493A34003F68001F20C
:1001540008DFF48029E493A3F85407240CC8C333BC
:10016400C4540F4420C8834004F456800146F6DF8B
:10017400E4800B01020408102040809003ACE47E6C
:10018400019360BCA3FF543F30E509541FFEE49380
:10019400A360010ECF54C025E060A840B8E493A347
:1001A400FAE493A3F8E493A3C8C582C8CAC583CA72
:1001B400F0A3C8C582C8CAC583CADFE9DEE780BE2A
:0103C200003A
:10000E00E709F608DFFA8046E709F208DFFA803ED4
:10001E0088828C83E709F0A3DFFA8032E309F608C1
:10002E00DFFA8078E309F208DFFA807088828C8329
:10003E00E309F0A3DFFA806489828A83E0A3F608DD
:10004E00DFFA805889828A83E0A3F208DFFA804CB7
:10005E0080D280FA80C680D4806980F2803380108E
:10006E0080A680EA809A80A880DA80E280CA8033F7
:10007E0089828A83ECFAE493A3C8C582C8CCC5836F
:10008E00CCF0A3C8C582C8CCC583CCDFE9DEE7803F
:10009E000D89828A83E493A3F608DFF9ECFAA9F0BE
:1000AE00EDFB2289828A83ECFAE0A3C8C582C8CC14
:1000BE00C583CCF0A3C8C582C8CCC583CCDFEADE2D
:1000CE00E880DB89828A83E493A3F208DFF980CC8F
:1000DE0088F0EF60010E4E60C388F0ED2402B40488
:1000EE000050B9F582EB2402B4040050AF2323452F
:0600FE00822390005E73F6
:10010400BB010689828A83F0225002F722BBFE01DA
:02011400F322D4
:10011600F8BB010DE58229F582E5833AF583E8F01F
:10012600225006E92582C8F622BBFE05E92582C8CB
:02013600F222B3
:00000001FF
