:030000000200DC1F
:0C00DC00787FE4F6D8FD7581290201232D
:1003DA000A0AC0F9A4B0999282F880900108000133
:0203EA00090008
:0F03ED007580FFE5A0541F4480F5A053A01F2288
:10023E002000082001055380AF80253000083001D2
:10024E0005438050801A30000B2001084380405334
:10025E0080EF800C2001143001115380BF438010B9
:0C026E00E5A0541F44A0F5A053A01F22DF
:100168007580FFE5A0541F44E0F5A053A01FAF0819
:100178007401A807088002C333D8FCF580E5A054B1
:100188001F44C0F5A053A01F74142508F8E6240ADC
:10019800F8E6F580E5A0541F44E0F5A053A01F053C
:0901A80008E508B40803E4F508B9
:0101B100222B
:0801B2008F288E278D268C2575
:1001BA00752907E47B0AFAF9F8AF28AE27AD26AC11
:1001CA002512004AAF0374142529F8A607AF28AEF2
:1001DA0027AD26AC25E47B0AFAF9F812004A8F28E3
:1001EA008E278D268C251529C3E529648094805095
:0101FA00C242
:0101FB0022E1
:1003B100D2AFD2A9E58954F04401F589758CF8E4EE
:0503C100F58AD28C2238
:03000B00020344A9
:10034400C0E0C0D075D000C000C007758CF8758AB5
:0D03540000120168D007D000D0D0D0E032F8
:1001FC00E4FF43C014FE7401A806088002C333D880
:10020C00FCF4F5B020C406EE25E025E0FF20C20783
:10021C00EE25E025E004FF20B508EE25E025E024DE
:10022C0002FF20B408EE25E025E02403FF0EBE04F7
:01023C00C5FC
:01023D00229E
:1003C6001201FCE5097006EF6003FD8002E4FD8F73
:0303D60009AF0567
:0103D9002201
:10027A008F248E238D228C21E51F2524F51FE51E50
:10028A003523F51EE51D3522F51DE51C3521F51C26
:10029A00AF1FAE1EAD1DFC1201B2AD1FE4FF02037B
:0102AA007ED5
:1002AB001203B1C200C20112023E1203EDE4FF12AF
:1002BB0002D9E48F1F8E1EF51DF51CAD1DAC1C1253
:0E02CB0001B21203C6E4FCFDFE12027A80F4BA
:0600030000007F0CDFFE8F
:0100090022D4
:0F03FC00D2A1D2A0120003C2A1120003C2A022FC
:0A040B00C2A1D2A0120003D2A12268
:10039900EF6004C2A18002D2A1120003D2A0120010
:0803A90003C2A0D2A10200036F
:0B03000012032312030BAF04120323AF
:10030B00D2A1120003D2A012000330A107C2A01287
:08031B00040BC322C2A0D3228F
:02032300AE0723
:10032500E4FDEE30E704D2A18002C2A1120003D29F
:0E033500A0EE25E0FE120003C2A00DBD08E4FC
:010343002297
:10036100E4FDD2A0120003EE25E0FE30A103430616
:0C03710001C2A01200030DBD08E8AF0699
:01037D00225D
:10037E00AC05AB071203FC7FA012032312030BAFD5
:0B038E000312030012040BE4FEFF2228
:0202D900AC0770
:1002DB001203FC7FA01203001203FC7FA112032365
:1002EB0012030B120361AE077F0112039912040B69
:0402FB00AF067E00CC
:0102FF0022DC
:1000E8000202ABE493A3F8E493A34003F68001F281
:1000F80008DFF48029E493A3F85407240CC8C33319
:10010800C4540F4420C8834004F456800146F6DFE7
:10011800E4800B01020408102040809003DAE47E9A
:10012800019360BCA3FF543F30E509541FFEE493DC
:10013800A360010ECF54C025E060A840B8E493A3A3
:10014800FAE493A3F8E493A3C8C582C8CAC583CACE
:10015800F0A3C8C582C8CAC583CADFE9DEE780BE86
:0103EC000010
:10000E0075F008758200EF2FFFEE33FECD33CDCCA9
:10001E0033CCC58233C5829BED9AEC99E58298402C
:10002E000CF582EE9BFEED9AFDEC99FC0FD5F0D609
:10003E00E4CEFBE4CDFAE4CCF9A88222B800C1B933
:10004E000059BA002DEC8BF084CFCECDFCE5F0CB71
:10005E00F97818EF2FFFEE33FEED33FDEC33FCEBAA
:10006E0033FB10D703994004EB99FB0FD8E5E4F965
:10007E00FA227818EF2FFFEE33FEED33FDEC33FC52
:10008E00C933C910D7059BE99A4007EC9BFCE99A46
:10009E00F90FD8E0E4C9FAE4CCFB2275F010EF2F8B
:1000AE00FFEE33FEED33FDCC33CCC833C810D7078B
:1000BE009BEC9AE899400AED9BFDEC9AFCE899F8C6
:0E00CE000FD5F0DAE4CDFBE4CCFAE4C8F92259
:00000001FF
