:03000000020109F1
:0C010900787FE4F6D8FD758125020150D6
:1002C6000A0BC0F9A4B0999282F88090010800C187
:0502D600000209000018
:1002DC00EF7011ED700E5380AFE5A0541F44A0F5E4
:0502EC00A053A01F2239
:0600030000007F24DFFE77
:0100090022D4
:100195007580FFE5A0541F44E0F5A053A01FAF08EC
:1001A5007401A807088002C333D8FCF580E5A05484
:1001B5001F44C0F5A053A01F74152508F8E6240BAD
:1001C500F8E6F580E5A0541F44E0F5A053A01F050F
:0901D50008E508B40803E4F5088C
:0101DE0022FE
:0801DF008F248E238D228C2158
:1001E700752507E47B0AFAF9F8AF24AE23AD22ACF4
:1001F7002112004AAF0374152525F8A607AF24AED0
:1002070023AD22AC21E47B0AFAF9F812004A8F24C5
:100217008E238D228C211525C3E52564809480507B
:01022700C214
:0102280022B3
:1002F100D2AFD2A9C2AB758911758CF8E4F58AD257
:040301008CC28E22FA
:03000B0002026688
:0B026600C0E0C0D075D000C000C00791
:10027100758CF8758A00120195050AE50A70020568
:0D0281000964FA45097006D200F509F50A76
:09028E00D007D000D0D0D0E0323E
:10029700E4FED29012000300000000C29012000397
:0802A700000000000EBE08EA91
:0102AF00222C
:10022900D291E4F58DF58BC28FD28E12029730915F
:1002390003308FFAC28E308F0A7F9F7E867D017CC4
:10024900008019AF8DEFFEAD8BEDFF7C007D1112A3
:0C02590000DCE47BE87A03F9F812004AAC
:010265002276
:1002B000E4FDFF1202DC1202F13000FDC200120266
:0602C000291201DF80F3AA
:100115000202B0E493A3F8E493A34003F68001F24E
:1001250008DFF48029E493A3F85407240CC8C333EB
:10013500C4540F4420C8834004F456800146F6DFBA
:10014500E4800B01020408102040809002C6E47E82
:10015500019360BCA3FF543F30E509541FFEE493AF
:10016500A360010ECF54C025E060A840B8E493A376
:10017500FAE493A3F8E493A3C8C582C8CAC583CAA1
:10018500F0A3C8C582C8CAC583CADFE9DEE780BE59
:0102DB000022
:10000E0075F008758200EF2FFFEE33FECD33CDCCA9
:10001E0033CCC58233C5829BED9AEC99E58298402C
:10002E000CF582EE9BFEED9AFDEC99FC0FD5F0D609
:10003E00E4CEFBE4CDFAE4CCF9A88222B800C1B933
:10004E000059BA002DEC8BF084CFCECDFCE5F0CB71
:10005E00F97818EF2FFFEE33FEED33FDEC33FCEBAA
:10006E0033FB10D703994004EB99FB0FD8E5E4F965
:10007E00FA227818EF2FFFEE33FEED33FDEC33FC52
:10008E00C933C910D7059BE99A4007EC9BFCE99A46
:10009E00F90FD8E0E4C9FAE4CCFB2275F010EF2F8B
:1000AE00FFEE33FEED33FDCC33CCC833C810D7078B
:1000BE009BEC9AE899400AED9BFDEC9AFCE899F8C6
:0E00CE000FD5F0DAE4CDFBE4CCFAE4C8F92259
:1000DC00EC8EF0A4CCC5F0CCCDF8EFA4CEC5F02DB1
:1000EC00FDE43CFCE8A42EC8C5F03DFDE43CFCEF6F
:0D00FC00A4FFE5F028FEE43DFDE43CFC22FD
:00000001FF
