:0300000002013EBC
:0C013E00787FE4F6D8FD75812A02018567
:0F0396000A09C0F9A4B0999282F880900108007A
:1002AF002000082001055380AF8025300008300161
:1002BF0005438050801A30000B20010843804053C3
:1002CF0080EF800C2001143001115380BF43801048
:0C02DF00E5A0541F44A0F5A053A01F226E
:10021B007580FFE5A0541F44E0F5A053A01FAF0865
:10022B007401A807088002C333D8FCF580E5A054FD
:10023B001F44C0F5A053A01F74132508F8E624092A
:10024B00F8E6F580E5A0541F44E0F5A053A01F0588
:09025B0008E508B40803E4F50805
:010264002277
:080265008F288E278D268C25C1
:10026D00752907E47B0AFAF9F8AF28AE27AD26AC5D
:10027D0025120099AF0374132529F8A607AF28AEF0
:10028D0027AD26AC25E47B0AFAF9F81200998F28E0
:10029D008E278D268C251529C3E5296480948050E1
:0102AD00C28E
:0102AE00222D
:10038100D2AFD2A9E58954F04401F589758CF8E41E
:05039100F58AD28C2268
:03000B00020330BD
:10033000C0E0C0D075D000C000C007758CF8758AC9
:0D0340000012021BD007D000D0D0D0E03258
:0A034D00120381C200C2011202AFC8
:0E0357001201CA8F248E238D228C2112026582
:0203650080F026
:0403A6007F287E002E
:0B03AA00EF1FAC0670011E4C70F62225
:1002EB00C200D2947F607E001203AAC2947F807EEC
:1002FB00021203AAD2947F507E001203AAA29492F8
:06030B00001203A6A2008F
:0103110022C9
:02031200AD0735
:10031400E4FBC294ED1392941203A6D294EDC3139A
:0C032400FD0BBB08ED7F287E000203AA41
:10036700E4FBC294EDC313FDD2943094034305809C
:090377001203A60BBB08EBAF0555
:01038000225A
:1001CA001202EB7FCC1203127F44120312D2943034
:1001DA0094FD1202EB7FCC1203127FBE120312129D
:1001EA0003677529008F2A120367EF4529FEE52A5E
:1001FA00FFE48F288E27F526F5257F107E27FDFC44
:10020A00AB28AA27A926A82512000E780412012BCA
:01021A0022C1
:10014A0002034DE493A3F8E493A34003F68001F27B
:10015A0008DFF48029E493A3F85407240CC8C333B6
:10016A00C4540F4420C8834004F456800146F6DF85
:10017A00E4800B0102040810204080900396E47E7C
:10018A00019360BCA3FF543F30E509541FFEE4937A
:10019A00A360010ECF54C025E060A840B8E493A341
:1001AA00FAE493A3F8E493A3C8C582C8CAC583CA6C
:1001BA00F0A3C8C582C8CAC583CADFE9DEE780BE24
:0103A5000057
:10000E00E88FF0A4CC8BF0A42CFCE98EF0A42CFC91
:10001E008AF0EDA42CFCEA8EF0A4CDA8F08BF0A40F
:10002E002DCC3825F0FDE98FF0A42CCD35F0FCEB6E
:10003E008EF0A4FEA9F0EB8FF0A4CFC5F02ECD3933
:0F004E00FEE43CFCEAA42DCE35F0FDE43CFC22A0
:10005D0075F008758200EF2FFFEE33FECD33CDCC5A
:10006D0033CCC58233C5829BED9AEC99E5829840DD
:10007D000CF582EE9BFEED9AFDEC99FC0FD5F0D6BA
:10008D00E4CEFBE4CDFAE4CCF9A88222B800C1B9E4
:10009D000059BA002DEC8BF084CFCECDFCE5F0CB22
:1000AD00F97818EF2FFFEE33FEED33FDEC33FCEB5B
:1000BD0033FB10D703994004EB99FB0FD8E5E4F916
:1000CD00FA227818EF2FFFEE33FEED33FDEC33FC03
:1000DD00C933C910D7059BE99A4007EC9BFCE99AF7
:1000ED00F90FD8E0E4C9FAE4CCFB2275F010EF2F3C
:1000FD00FFEE33FEED33FDCC33CCC833C810D7073C
:10010D009BEC9AE899400AED9BFDEC9AFCE899F876
:0E011D000FD5F0DAE4CDFBE4CCFAE4C8F92209
:10012B00E8600FECC313FCED13FDEE13FEEF13FFB2
:03013B00D8F122D6
:00000001FF
