:030000000200DC1F
:0C00DC00787FE4F6D8FD75812402012332
:0F0326000A09C0F9A4B0999282F88090010800EA
:1001FC002000082001055380AF8025300008300115
:10020C0005438050801A30000B2001084380405376
:10021C0080EF800C2001143001115380BF438010FB
:0C022C00E5A0541F44A0F5A053A01F2221
:100168007580FFE5A0541F44E0F5A053A01FAF0819
:100178007401A807088002C333D8FCF580E5A054B1
:100188001F44C0F5A053A01F74132508F8E62409DE
:10019800F8E6F580E5A0541F44E0F5A053A01F053C
:0901A80008E508B40803E4F508B9
:0101B100222B
:0801B2008F1E8E1D8D1C8C1B9D
:1001BA00751F07E47B0AFAF9F8AF1EAE1DAD1CAC39
:1001CA001B12004AAF037413251FF8A607AF1EAE11
:1001DA001DAD1CAC1BE47B0AFAF9F812004A8F1E0B
:1001EA008E1D8D1C8C1B151FC3E51F6480948050C7
:0101FA00C242
:0101FB0022E1
:1002FE00D2AFD2A9E58954F04401F589758CF8E4A2
:05030E00F58AD28C22EB
:03000B000202E10D
:1002E100C0E0C0D075D000C000C007758CF8758A19
:0D02F10000120168D007D000D0D0D0E0325C
:0C0336001202FEC200C2011201FC80FE97
:10031300D2A1D2A00000000000C2A1000000000092
:03032300C2A02253
:0C034200C2A1D2A00000000000D2A12245
:10028400EF6004C2A18002D2A10000000000D2A04D
:0F0294000000000000C2A0D2A100000000002264
:0302A300120261E3
:1002A600D2A10000000000D2A0000000000030A192
:0C02B60007C2A0120342C322C2A0D32240
:10026100E4FEEF30E704D2A18002C2A10000000049
:1002710000D2A0EF25E0FF0000000000C2A00EBEEA
:0202810008E093
:010283002258
:1002C200E4FED2A00000000000EF25E0FF30A10311
:0E02D200430701C2A000000000000EBE08E4B9
:0102E00022FB
:02023800AD0710
:10023A001203137F901202A3ED4440FF1202A3128D
:10024A0003137F911202611202A61202C2AE07E4E0
:06025A00FF120284AF0652
:01026000227B
:1000E800020336E493A3F8E493A34003F68001F2F5
:1000F80008DFF48029E493A3F85407240CC8C33319
:10010800C4540F4420C8834004F456800146F6DFE7
:10011800E4800B0102040810204080900326E47E4E
:10012800019360BCA3FF543F30E509541FFEE493DC
:10013800A360010ECF54C025E060A840B8E493A3A3
:10014800FAE493A3F8E493A3C8C582C8CAC583CACE
:10015800F0A3C8C582C8CAC583CADFE9DEE780BE86
:0103350000C7
:10000E0075F008758200EF2FFFEE33FECD33CDCCA9
:10001E0033CCC58233C5829BED9AEC99E58298402C
:10002E000CF582EE9BFEED9AFDEC99FC0FD5F0D609
:10003E00E4CEFBE4CDFAE4CCF9A88222B800C1B933
:10004E000059BA002DEC8BF084CFCECDFCE5F0CB71
:10005E00F97818EF2FFFEE33FEED33FDEC33FCEBAA
:10006E0033FB10D703994004EB99FB0FD8E5E4F965
:10007E00FA227818EF2FFFEE33FEED33FDEC33FC52
:10008E00C933C910D7059BE99A4007EC9BFCE99A46
:10009E00F90FD8E0E4C9FAE4CCFB2275F010EF2F8B
:1000AE00FFEE33FEED33FDCC33CCC833C810D7078B
:1000BE009BEC9AE899400AED9BFDEC9AFCE899F8C6
:0E00CE000FD5F0DAE4CDFBE4CCFAE4C8F92259
:00000001FF
